{
  "_format": "hh-sol-artifact-1",
  "contractName": "EpicNFT",
  "sourceName": "src/contracts/EpicNFT.sol",
  "abi": [
    {
      "inputs": [],
      "stateMutability": "nonpayable",
      "type": "constructor"
    },
    {
      "anonymous": false,
      "inputs": [
        {
          "indexed": true,
          "internalType": "address",
          "name": "owner",
          "type": "address"
        },
        {
          "indexed": true,
          "internalType": "address",
          "name": "approved",
          "type": "address"
        },
        {
          "indexed": true,
          "internalType": "uint256",
          "name": "tokenId",
          "type": "uint256"
        }
      ],
      "name": "Approval",
      "type": "event"
    },
    {
      "anonymous": false,
      "inputs": [
        {
          "indexed": true,
          "internalType": "address",
          "name": "owner",
          "type": "address"
        },
        {
          "indexed": true,
          "internalType": "address",
          "name": "operator",
          "type": "address"
        },
        {
          "indexed": false,
          "internalType": "bool",
          "name": "approved",
          "type": "bool"
        }
      ],
      "name": "ApprovalForAll",
      "type": "event"
    },
    {
      "anonymous": false,
      "inputs": [
        {
          "indexed": false,
          "internalType": "address",
          "name": "sender",
          "type": "address"
        },
        {
          "indexed": false,
          "internalType": "uint256",
          "name": "tokenId",
          "type": "uint256"
        }
      ],
      "name": "NewEpicNFTMinted",
      "type": "event"
    },
    {
      "anonymous": false,
      "inputs": [
        {
          "indexed": true,
          "internalType": "address",
          "name": "from",
          "type": "address"
        },
        {
          "indexed": true,
          "internalType": "address",
          "name": "to",
          "type": "address"
        },
        {
          "indexed": true,
          "internalType": "uint256",
          "name": "tokenId",
          "type": "uint256"
        }
      ],
      "name": "Transfer",
      "type": "event"
    },
    {
      "inputs": [
        {
          "internalType": "address",
          "name": "to",
          "type": "address"
        },
        {
          "internalType": "uint256",
          "name": "tokenId",
          "type": "uint256"
        }
      ],
      "name": "approve",
      "outputs": [],
      "stateMutability": "nonpayable",
      "type": "function"
    },
    {
      "inputs": [
        {
          "internalType": "address",
          "name": "owner",
          "type": "address"
        }
      ],
      "name": "balanceOf",
      "outputs": [
        {
          "internalType": "uint256",
          "name": "",
          "type": "uint256"
        }
      ],
      "stateMutability": "view",
      "type": "function"
    },
    {
      "inputs": [
        {
          "internalType": "uint256",
          "name": "tokenId",
          "type": "uint256"
        }
      ],
      "name": "getApproved",
      "outputs": [
        {
          "internalType": "address",
          "name": "",
          "type": "address"
        }
      ],
      "stateMutability": "view",
      "type": "function"
    },
    {
      "inputs": [
        {
          "internalType": "address",
          "name": "owner",
          "type": "address"
        },
        {
          "internalType": "address",
          "name": "operator",
          "type": "address"
        }
      ],
      "name": "isApprovedForAll",
      "outputs": [
        {
          "internalType": "bool",
          "name": "",
          "type": "bool"
        }
      ],
      "stateMutability": "view",
      "type": "function"
    },
    {
      "inputs": [],
      "name": "makeNFT",
      "outputs": [],
      "stateMutability": "nonpayable",
      "type": "function"
    },
    {
      "inputs": [],
      "name": "name",
      "outputs": [
        {
          "internalType": "string",
          "name": "",
          "type": "string"
        }
      ],
      "stateMutability": "view",
      "type": "function"
    },
    {
      "inputs": [
        {
          "internalType": "uint256",
          "name": "tokenId",
          "type": "uint256"
        }
      ],
      "name": "ownerOf",
      "outputs": [
        {
          "internalType": "address",
          "name": "",
          "type": "address"
        }
      ],
      "stateMutability": "view",
      "type": "function"
    },
    {
      "inputs": [
        {
          "internalType": "uint256",
          "name": "tokenId",
          "type": "uint256"
        }
      ],
      "name": "pickRandomFirstWord",
      "outputs": [
        {
          "internalType": "string",
          "name": "",
          "type": "string"
        }
      ],
      "stateMutability": "view",
      "type": "function"
    },
    {
      "inputs": [
        {
          "internalType": "uint256",
          "name": "tokenId",
          "type": "uint256"
        }
      ],
      "name": "pickRandomSecondWord",
      "outputs": [
        {
          "internalType": "string",
          "name": "",
          "type": "string"
        }
      ],
      "stateMutability": "view",
      "type": "function"
    },
    {
      "inputs": [
        {
          "internalType": "uint256",
          "name": "tokenId",
          "type": "uint256"
        }
      ],
      "name": "pickRandomThirdWord",
      "outputs": [
        {
          "internalType": "string",
          "name": "",
          "type": "string"
        }
      ],
      "stateMutability": "view",
      "type": "function"
    },
    {
      "inputs": [
        {
          "internalType": "address",
          "name": "from",
          "type": "address"
        },
        {
          "internalType": "address",
          "name": "to",
          "type": "address"
        },
        {
          "internalType": "uint256",
          "name": "tokenId",
          "type": "uint256"
        }
      ],
      "name": "safeTransferFrom",
      "outputs": [],
      "stateMutability": "nonpayable",
      "type": "function"
    },
    {
      "inputs": [
        {
          "internalType": "address",
          "name": "from",
          "type": "address"
        },
        {
          "internalType": "address",
          "name": "to",
          "type": "address"
        },
        {
          "internalType": "uint256",
          "name": "tokenId",
          "type": "uint256"
        },
        {
          "internalType": "bytes",
          "name": "_data",
          "type": "bytes"
        }
      ],
      "name": "safeTransferFrom",
      "outputs": [],
      "stateMutability": "nonpayable",
      "type": "function"
    },
    {
      "inputs": [
        {
          "internalType": "address",
          "name": "operator",
          "type": "address"
        },
        {
          "internalType": "bool",
          "name": "approved",
          "type": "bool"
        }
      ],
      "name": "setApprovalForAll",
      "outputs": [],
      "stateMutability": "nonpayable",
      "type": "function"
    },
    {
      "inputs": [
        {
          "internalType": "bytes4",
          "name": "interfaceId",
          "type": "bytes4"
        }
      ],
      "name": "supportsInterface",
      "outputs": [
        {
          "internalType": "bool",
          "name": "",
          "type": "bool"
        }
      ],
      "stateMutability": "view",
      "type": "function"
    },
    {
      "inputs": [],
      "name": "symbol",
      "outputs": [
        {
          "internalType": "string",
          "name": "",
          "type": "string"
        }
      ],
      "stateMutability": "view",
      "type": "function"
    },
    {
      "inputs": [
        {
          "internalType": "uint256",
          "name": "tokenId",
          "type": "uint256"
        }
      ],
      "name": "tokenURI",
      "outputs": [
        {
          "internalType": "string",
          "name": "",
          "type": "string"
        }
      ],
      "stateMutability": "view",
      "type": "function"
    },
    {
      "inputs": [
        {
          "internalType": "address",
          "name": "from",
          "type": "address"
        },
        {
          "internalType": "address",
          "name": "to",
          "type": "address"
        },
        {
          "internalType": "uint256",
          "name": "tokenId",
          "type": "uint256"
        }
      ],
      "name": "transferFrom",
      "outputs": [],
      "stateMutability": "nonpayable",
      "type": "function"
    }
  ],
  "bytecode": "0x608060405260405180610160016040528061012f8152602001620042dc61012f91396008908051906020019062000038929190620007a7565b506040518060e001604052806040518060400160405280600881526020017f4d6163617272616f00000000000000000000000000000000000000000000000081525081526020016040518060400160405280600581526020017f50697a7a6100000000000000000000000000000000000000000000000000000081525081526020016040518060400160405280600881526020017f4665696a6f61646100000000000000000000000000000000000000000000000081525081526020016040518060400160405280600c81526020017f4573636f6e646964696e686f000000000000000000000000000000000000000081525081526020016040518060400160405280600d81526020017f49736361446554696c617069610000000000000000000000000000000000000081525081526020016040518060400160405280600b81526020017f426174617461467269746100000000000000000000000000000000000000000081525081526020016040518060400160405280600e81526020017f436163686f72726f5175656e74650000000000000000000000000000000000008152508152506009906007620001f192919062000838565b506040518061010001604052806040518060400160405280600781526020017f446553686f72740000000000000000000000000000000000000000000000000081525081526020016040518060400160405280600781526020017f4465426c7573610000000000000000000000000000000000000000000000000081525081526020016040518060400160405280600681526020017f446553616961000000000000000000000000000000000000000000000000000081525081526020016040518060400160405280600881526020017f446553617061746f00000000000000000000000000000000000000000000000081525081526020016040518060400160405280600981526020017f44655665737469646f000000000000000000000000000000000000000000000081525081526020016040518060400160405280600a81526020017f446543616c63696e68610000000000000000000000000000000000000000000081525081526020016040518060400160405280600781526020017f446543756563610000000000000000000000000000000000000000000000000081525081526020016040518060400160405280600681526020017f4465436170610000000000000000000000000000000000000000000000000000815250815250600a906008620003e69291906200089f565b506040518061010001604052806040518060400160405280600781526020017f416e64616e646f0000000000000000000000000000000000000000000000000081525081526020016040518060400160405280600781526020017f4d6578656e646f0000000000000000000000000000000000000000000000000081525081526020016040518060400160405280600781526020017f436f6d656e646f0000000000000000000000000000000000000000000000000081525081526020016040518060400160405280600881526020017f436f7272656e646f00000000000000000000000000000000000000000000000081525081526020016040518060400160405280600881526020017f5669616a616e646f00000000000000000000000000000000000000000000000081525081526020016040518060400160405280600881526020017f446f726d696e646f00000000000000000000000000000000000000000000000081525081526020016040518060400160405280600681526020017f5375616e646f000000000000000000000000000000000000000000000000000081525081526020016040518060400160405280600881526020017f526f6e63616e646f000000000000000000000000000000000000000000000000815250815250600b906008620005db9291906200089f565b50348015620005e957600080fd5b506040518060400160405280600981526020017f5371756172654e465400000000000000000000000000000000000000000000008152506040518060400160405280600681526020017f535155415245000000000000000000000000000000000000000000000000000081525081600090805190602001906200066e929190620007a7565b50806001908051906020019062000687929190620007a7565b505050620006d56040518060400160405280600b81526020017f436f6e7472616374204f4b000000000000000000000000000000000000000000815250620006db60201b620010461760201c565b62000ac0565b6200077b81604051602401620006f29190620009d4565b6040516020818303038152906040527f41304fac000000000000000000000000000000000000000000000000000000007bffffffffffffffffffffffffffffffffffffffffffffffffffffffff19166020820180517bffffffffffffffffffffffffffffffffffffffffffffffffffffffff83818316178352505050506200077e60201b60201c565b50565b60008151905060006a636f6e736f6c652e6c6f679050602083016000808483855afa5050505050565b828054620007b59062000a4a565b90600052602060002090601f016020900481019282620007d9576000855562000825565b82601f10620007f457805160ff191683800117855562000825565b8280016001018555821562000825579182015b828111156200082457825182559160200191906001019062000807565b5b50905062000834919062000906565b5090565b8280548282559060005260206000209081019282156200088c579160200282015b828111156200088b5782518290805190602001906200087a929190620007a7565b509160200191906001019062000859565b5b5090506200089b919062000925565b5090565b828054828255906000526020600020908101928215620008f3579160200282015b82811115620008f2578251829080519060200190620008e1929190620007a7565b5091602001919060010190620008c0565b5b50905062000902919062000925565b5090565b5b808211156200092157600081600090555060010162000907565b5090565b5b808211156200094957600081816200093f91906200094d565b5060010162000926565b5090565b5080546200095b9062000a4a565b6000825580601f106200096f575062000990565b601f0160209004906000526020600020908101906200098f919062000906565b5b50565b6000620009a082620009f8565b620009ac818562000a03565b9350620009be81856020860162000a14565b620009c98162000aaf565b840191505092915050565b60006020820190508181036000830152620009f0818462000993565b905092915050565b600081519050919050565b600082825260208201905092915050565b60005b8381101562000a3457808201518184015260208101905062000a17565b8381111562000a44576000848401525b50505050565b6000600282049050600182168062000a6357607f821691505b6020821081141562000a7a5762000a7962000a80565b5b50919050565b7f4e487b7100000000000000000000000000000000000000000000000000000000600052602260045260246000fd5b6000601f19601f8301169050919050565b61380c8062000ad06000396000f3fe608060405234801561001057600080fd5b506004361061010b5760003560e01c806370a08231116100a2578063b187301f11610071578063b187301f146102b6578063b88d4fde146102e6578063c575757a14610302578063c87b56dd14610332578063e985e9c5146103625761010b565b806370a082311461024257806395d89b4114610272578063a22cb46514610290578063b036b4bd146102ac5761010b565b806323b872dd116100de57806323b872dd146101aa5780632de38d68146101c657806342842e0e146101f65780636352211e146102125761010b565b806301ffc9a71461011057806306fdde0314610140578063081812fc1461015e578063095ea7b31461018e575b600080fd5b61012a60048036038101906101259190612446565b610392565b6040516101379190613082565b60405180910390f35b610148610474565b604051610155919061309d565b60405180910390f35b61017860048036038101906101739190612498565b610506565b6040516101859190612ff2565b60405180910390f35b6101a860048036038101906101a3919061240a565b61058b565b005b6101c460048036038101906101bf9190612304565b6106a3565b005b6101e060048036038101906101db9190612498565b610703565b6040516101ed919061309d565b60405180910390f35b610210600480360381019061020b9190612304565b610821565b005b61022c60048036038101906102279190612498565b610841565b6040516102399190612ff2565b60405180910390f35b61025c6004803603810190610257919061229f565b6108f3565b60405161026991906132fd565b60405180910390f35b61027a6109ab565b604051610287919061309d565b60405180910390f35b6102aa60048036038101906102a591906123ce565b610a3d565b005b6102b4610a53565b005b6102d060048036038101906102cb9190612498565b610bc2565b6040516102dd919061309d565b60405180910390f35b61030060048036038101906102fb9190612353565b610ce0565b005b61031c60048036038101906103179190612498565b610d42565b604051610329919061309d565b60405180910390f35b61034c60048036038101906103479190612498565b610e60565b604051610359919061309d565b60405180910390f35b61037c600480360381019061037791906122c8565b610fb2565b6040516103899190613082565b60405180910390f35b60007f80ac58cd000000000000000000000000000000000000000000000000000000007bffffffffffffffffffffffffffffffffffffffffffffffffffffffff1916827bffffffffffffffffffffffffffffffffffffffffffffffffffffffff1916148061045d57507f5b5e139f000000000000000000000000000000000000000000000000000000007bffffffffffffffffffffffffffffffffffffffffffffffffffffffff1916827bffffffffffffffffffffffffffffffffffffffffffffffffffffffff1916145b8061046d575061046c826110df565b5b9050919050565b6060600080546104839061359c565b80601f01602080910402602001604051908101604052809291908181526020018280546104af9061359c565b80156104fc5780601f106104d1576101008083540402835291602001916104fc565b820191906000526020600020905b8154815290600101906020018083116104df57829003601f168201915b5050505050905090565b600061051182611149565b610550576040517f08c379a00000000000000000000000000000000000000000000000000000000081526004016105479061325d565b60405180910390fd5b6004600083815260200190815260200160002060009054906101000a900473ffffffffffffffffffffffffffffffffffffffff169050919050565b600061059682610841565b90508073ffffffffffffffffffffffffffffffffffffffff168373ffffffffffffffffffffffffffffffffffffffff161415610607576040517f08c379a00000000000000000000000000000000000000000000000000000000081526004016105fe906132bd565b60405180910390fd5b8073ffffffffffffffffffffffffffffffffffffffff166106266111b5565b73ffffffffffffffffffffffffffffffffffffffff16148061065557506106548161064f6111b5565b610fb2565b5b610694576040517f08c379a000000000000000000000000000000000000000000000000000000000815260040161068b9061319d565b60405180910390fd5b61069e83836111bd565b505050565b6106b46106ae6111b5565b82611276565b6106f3576040517f08c379a00000000000000000000000000000000000000000000000000000000081526004016106ea906132dd565b60405180910390fd5b6106fe838383611354565b505050565b60606000610737610713846115b0565b6040516020016107239190612fae565b60405160208183030381529060405261175d565b90506009805490508161074a9190613617565b905060098181548110610786577f4e487b7100000000000000000000000000000000000000000000000000000000600052603260045260246000fd5b90600052602060002001805461079b9061359c565b80601f01602080910402602001604051908101604052809291908181526020018280546107c79061359c565b80156108145780601f106107e957610100808354040283529160200191610814565b820191906000526020600020905b8154815290600101906020018083116107f757829003601f168201915b5050505050915050919050565b61083c83838360405180602001604052806000815250610ce0565b505050565b6000806002600084815260200190815260200160002060009054906101000a900473ffffffffffffffffffffffffffffffffffffffff169050600073ffffffffffffffffffffffffffffffffffffffff168173ffffffffffffffffffffffffffffffffffffffff1614156108ea576040517f08c379a00000000000000000000000000000000000000000000000000000000081526004016108e1906131dd565b60405180910390fd5b80915050919050565b60008073ffffffffffffffffffffffffffffffffffffffff168273ffffffffffffffffffffffffffffffffffffffff161415610964576040517f08c379a000000000000000000000000000000000000000000000000000000000815260040161095b906131bd565b60405180910390fd5b600360008373ffffffffffffffffffffffffffffffffffffffff1673ffffffffffffffffffffffffffffffffffffffff168152602001908152602001600020549050919050565b6060600180546109ba9061359c565b80601f01602080910402602001604051908101604052809291908181526020018280546109e69061359c565b8015610a335780601f10610a0857610100808354040283529160200191610a33565b820191906000526020600020905b815481529060010190602001808311610a1657829003601f168201915b5050505050905090565b610a4f610a486111b5565b8383611790565b5050565b6000610a5f60076118fd565b90506000610a6c82610703565b90506000610a7983610bc2565b90506000610a8684610d42565b90506000838383604051602001610a9f93929190612eab565b604051602081830303815290604052905060006008858585604051602001610aca9493929190612edc565b6040516020818303038152906040529050610ae481611046565b6000610b1883610af38461190b565b604051602001610b04929190612f69565b60405160208183030381529060405261190b565b9050600081604051602001610b2d9190612fd0565b6040516020818303038152906040529050610b483389611ac9565b610b528882611ae7565b610b5c6007611b5b565b610b7f604051806060016040528060258152602001613772602591398933611b71565b7febb98688741ffa4c7589bf325de30cf7becb63de567842e1ccdb6cb949fdc82c3389604051610bb0929190613059565b60405180910390a15050505050505050565b60606000610bf6610bd2846115b0565b604051602001610be29190612f47565b60405160208183030381529060405261175d565b9050600a8054905081610c099190613617565b9050600a8181548110610c45577f4e487b7100000000000000000000000000000000000000000000000000000000600052603260045260246000fd5b906000526020600020018054610c5a9061359c565b80601f0160208091040260200160405190810160405280929190818152602001828054610c869061359c565b8015610cd35780601f10610ca857610100808354040283529160200191610cd3565b820191906000526020600020905b815481529060010190602001808311610cb657829003601f168201915b5050505050915050919050565b610cf1610ceb6111b5565b83611276565b610d30576040517f08c379a0000000000000000000000000000000000000000000000000000000008152600401610d27906132dd565b60405180910390fd5b610d3c84848484611c10565b50505050565b60606000610d76610d52846115b0565b604051602001610d629190612f25565b60405160208183030381529060405261175d565b9050600b8054905081610d899190613617565b9050600b8181548110610dc5577f4e487b7100000000000000000000000000000000000000000000000000000000600052603260045260246000fd5b906000526020600020018054610dda9061359c565b80601f0160208091040260200160405190810160405280929190818152602001828054610e069061359c565b8015610e535780601f10610e2857610100808354040283529160200191610e53565b820191906000526020600020905b815481529060010190602001808311610e3657829003601f168201915b5050505050915050919050565b6060610e6b82611149565b610eaa576040517f08c379a0000000000000000000000000000000000000000000000000000000008152600401610ea19061323d565b60405180910390fd5b6000600660008481526020019081526020016000208054610eca9061359c565b80601f0160208091040260200160405190810160405280929190818152602001828054610ef69061359c565b8015610f435780601f10610f1857610100808354040283529160200191610f43565b820191906000526020600020905b815481529060010190602001808311610f2657829003601f168201915b505050505090506000610f54611c6c565b9050600081511415610f6a578192505050610fad565b600082511115610f9f578082604051602001610f87929190612e87565b60405160208183030381529060405292505050610fad565b610fa884611c83565b925050505b919050565b6000600560008473ffffffffffffffffffffffffffffffffffffffff1673ffffffffffffffffffffffffffffffffffffffff16815260200190815260200160002060008373ffffffffffffffffffffffffffffffffffffffff1673ffffffffffffffffffffffffffffffffffffffff16815260200190815260200160002060009054906101000a900460ff16905092915050565b6110dc8160405160240161105a919061309d565b6040516020818303038152906040527f41304fac000000000000000000000000000000000000000000000000000000007bffffffffffffffffffffffffffffffffffffffffffffffffffffffff19166020820180517bffffffffffffffffffffffffffffffffffffffffffffffffffffffff8381831617835250505050611d2a565b50565b60007f01ffc9a7000000000000000000000000000000000000000000000000000000007bffffffffffffffffffffffffffffffffffffffffffffffffffffffff1916827bffffffffffffffffffffffffffffffffffffffffffffffffffffffff1916149050919050565b60008073ffffffffffffffffffffffffffffffffffffffff166002600084815260200190815260200160002060009054906101000a900473ffffffffffffffffffffffffffffffffffffffff1673ffffffffffffffffffffffffffffffffffffffff1614159050919050565b600033905090565b816004600083815260200190815260200160002060006101000a81548173ffffffffffffffffffffffffffffffffffffffff021916908373ffffffffffffffffffffffffffffffffffffffff160217905550808273ffffffffffffffffffffffffffffffffffffffff1661123083610841565b73ffffffffffffffffffffffffffffffffffffffff167f8c5be1e5ebec7d5bd14f71427d1e84f3dd0314c0f7b2291e5b200ac8c7c3b92560405160405180910390a45050565b600061128182611149565b6112c0576040517f08c379a00000000000000000000000000000000000000000000000000000000081526004016112b79061317d565b60405180910390fd5b60006112cb83610841565b90508073ffffffffffffffffffffffffffffffffffffffff168473ffffffffffffffffffffffffffffffffffffffff16148061133a57508373ffffffffffffffffffffffffffffffffffffffff1661132284610506565b73ffffffffffffffffffffffffffffffffffffffff16145b8061134b575061134a8185610fb2565b5b91505092915050565b8273ffffffffffffffffffffffffffffffffffffffff1661137482610841565b73ffffffffffffffffffffffffffffffffffffffff16146113ca576040517f08c379a00000000000000000000000000000000000000000000000000000000081526004016113c19061327d565b60405180910390fd5b600073ffffffffffffffffffffffffffffffffffffffff168273ffffffffffffffffffffffffffffffffffffffff16141561143a576040517f08c379a00000000000000000000000000000000000000000000000000000000081526004016114319061313d565b60405180910390fd5b611445838383611d53565b6114506000826111bd565b6001600360008573ffffffffffffffffffffffffffffffffffffffff1673ffffffffffffffffffffffffffffffffffffffff16815260200190815260200160002060008282546114a091906134b2565b925050819055506001600360008473ffffffffffffffffffffffffffffffffffffffff1673ffffffffffffffffffffffffffffffffffffffff16815260200190815260200160002060008282546114f791906133d1565b92505081905550816002600083815260200190815260200160002060006101000a81548173ffffffffffffffffffffffffffffffffffffffff021916908373ffffffffffffffffffffffffffffffffffffffff160217905550808273ffffffffffffffffffffffffffffffffffffffff168473ffffffffffffffffffffffffffffffffffffffff167fddf252ad1be2c89b69c2b068fc378daa952ba7f163c4a11628f55a4df523b3ef60405160405180910390a4505050565b606060008214156115f8576040518060400160405280600181526020017f30000000000000000000000000000000000000000000000000000000000000008152509050611758565b600082905060005b6000821461162a578080611613906135ce565b915050600a826116239190613427565b9150611600565b60008167ffffffffffffffff81111561166c577f4e487b7100000000000000000000000000000000000000000000000000000000600052604160045260246000fd5b6040519080825280601f01601f19166020018201604052801561169e5781602001600182028036833780820191505090505b5090505b60008514611751576001826116b791906134b2565b9150600a856116c69190613617565b60306116d291906133d1565b60f81b81838151811061170e577f4e487b7100000000000000000000000000000000000000000000000000000000600052603260045260246000fd5b60200101907effffffffffffffffffffffffffffffffffffffffffffffffffffffffffffff1916908160001a905350600a8561174a9190613427565b94506116a2565b8093505050505b919050565b6000816040516020016117709190612e70565b6040516020818303038152906040528051906020012060001c9050919050565b8173ffffffffffffffffffffffffffffffffffffffff168373ffffffffffffffffffffffffffffffffffffffff1614156117ff576040517f08c379a00000000000000000000000000000000000000000000000000000000081526004016117f69061315d565b60405180910390fd5b80600560008573ffffffffffffffffffffffffffffffffffffffff1673ffffffffffffffffffffffffffffffffffffffff16815260200190815260200160002060008473ffffffffffffffffffffffffffffffffffffffff1673ffffffffffffffffffffffffffffffffffffffff16815260200190815260200160002060006101000a81548160ff0219169083151502179055508173ffffffffffffffffffffffffffffffffffffffff168373ffffffffffffffffffffffffffffffffffffffff167f17307eab39ab6107e8899845ad3d59bd9653f200f220920489ca2b5937696c31836040516118f09190613082565b60405180910390a3505050565b600081600001549050919050565b606060008251905060008114156119345760405180602001604052806000815250915050611ac4565b6000600360028361194591906133d1565b61194f9190613427565b600461195b9190613458565b9050600060208261196c91906133d1565b67ffffffffffffffff8111156119ab577f4e487b7100000000000000000000000000000000000000000000000000000000600052604160045260246000fd5b6040519080825280601f01601f1916602001820160405280156119dd5781602001600182028036833780820191505090505b5090506000604051806060016040528060408152602001613797604091399050600181016020830160005b86811015611a815760038101905062ffffff818a015116603f8160121c168401518060081b905060ff603f83600c1c1686015116810190508060081b905060ff603f8360061c1686015116810190508060081b905060ff603f831686015116810190508060e01b90508084526004840193505050611a08565b506003860660018114611a9b5760028114611aab57611ab6565b613d3d60f01b6002830352611ab6565b603d60f81b60018303525b508484525050819450505050505b919050565b611ae3828260405180602001604052806000815250611d58565b5050565b611af082611149565b611b2f576040517f08c379a0000000000000000000000000000000000000000000000000000000008152600401611b26906131fd565b60405180910390fd5b80600660008481526020019081526020016000209080519060200190611b5692919061212b565b505050565b6001816000016000828254019250508190555050565b611c0b838383604051602401611b89939291906130bf565b6040516020818303038152906040527fe3849f79000000000000000000000000000000000000000000000000000000007bffffffffffffffffffffffffffffffffffffffffffffffffffffffff19166020820180517bffffffffffffffffffffffffffffffffffffffffffffffffffffffff8381831617835250505050611d2a565b505050565b611c1b848484611354565b611c2784848484611db3565b611c66576040517f08c379a0000000000000000000000000000000000000000000000000000000008152600401611c5d906130fd565b60405180910390fd5b50505050565b606060405180602001604052806000815250905090565b6060611c8e82611149565b611ccd576040517f08c379a0000000000000000000000000000000000000000000000000000000008152600401611cc49061329d565b60405180910390fd5b6000611cd7611c6c565b90506000815111611cf75760405180602001604052806000815250611d22565b80611d01846115b0565b604051602001611d12929190612e87565b6040516020818303038152906040525b915050919050565b60008151905060006a636f6e736f6c652e6c6f679050602083016000808483855afa5050505050565b505050565b611d628383611f4a565b611d6f6000848484611db3565b611dae576040517f08c379a0000000000000000000000000000000000000000000000000000000008152600401611da5906130fd565b60405180910390fd5b505050565b6000611dd48473ffffffffffffffffffffffffffffffffffffffff16612118565b15611f3d578373ffffffffffffffffffffffffffffffffffffffff1663150b7a02611dfd6111b5565b8786866040518563ffffffff1660e01b8152600401611e1f949392919061300d565b602060405180830381600087803b158015611e3957600080fd5b505af1925050508015611e6a57506040513d601f19601f82011682018060405250810190611e67919061246f565b60015b611eed573d8060008114611e9a576040519150601f19603f3d011682016040523d82523d6000602084013e611e9f565b606091505b50600081511415611ee5576040517f08c379a0000000000000000000000000000000000000000000000000000000008152600401611edc906130fd565b60405180910390fd5b805181602001fd5b63150b7a0260e01b7bffffffffffffffffffffffffffffffffffffffffffffffffffffffff1916817bffffffffffffffffffffffffffffffffffffffffffffffffffffffff191614915050611f42565b600190505b949350505050565b600073ffffffffffffffffffffffffffffffffffffffff168273ffffffffffffffffffffffffffffffffffffffff161415611fba576040517f08c379a0000000000000000000000000000000000000000000000000000000008152600401611fb19061321d565b60405180910390fd5b611fc381611149565b15612003576040517f08c379a0000000000000000000000000000000000000000000000000000000008152600401611ffa9061311d565b60405180910390fd5b61200f60008383611d53565b6001600360008473ffffffffffffffffffffffffffffffffffffffff1673ffffffffffffffffffffffffffffffffffffffff168152602001908152602001600020600082825461205f91906133d1565b92505081905550816002600083815260200190815260200160002060006101000a81548173ffffffffffffffffffffffffffffffffffffffff021916908373ffffffffffffffffffffffffffffffffffffffff160217905550808273ffffffffffffffffffffffffffffffffffffffff16600073ffffffffffffffffffffffffffffffffffffffff167fddf252ad1be2c89b69c2b068fc378daa952ba7f163c4a11628f55a4df523b3ef60405160405180910390a45050565b600080823b905060008111915050919050565b8280546121379061359c565b90600052602060002090601f01602090048101928261215957600085556121a0565b82601f1061217257805160ff19168380011785556121a0565b828001600101855582156121a0579182015b8281111561219f578251825591602001919060010190612184565b5b5090506121ad91906121b1565b5090565b5b808211156121ca5760008160009055506001016121b2565b5090565b60006121e16121dc84613349565b613318565b9050828152602081018484840111156121f957600080fd5b61220484828561355a565b509392505050565b60008135905061221b81613715565b92915050565b6000813590506122308161372c565b92915050565b60008135905061224581613743565b92915050565b60008151905061225a81613743565b92915050565b600082601f83011261227157600080fd5b81356122818482602086016121ce565b91505092915050565b6000813590506122998161375a565b92915050565b6000602082840312156122b157600080fd5b60006122bf8482850161220c565b91505092915050565b600080604083850312156122db57600080fd5b60006122e98582860161220c565b92505060206122fa8582860161220c565b9150509250929050565b60008060006060848603121561231957600080fd5b60006123278682870161220c565b93505060206123388682870161220c565b92505060406123498682870161228a565b9150509250925092565b6000806000806080858703121561236957600080fd5b60006123778782880161220c565b94505060206123888782880161220c565b93505060406123998782880161228a565b925050606085013567ffffffffffffffff8111156123b657600080fd5b6123c287828801612260565b91505092959194509250565b600080604083850312156123e157600080fd5b60006123ef8582860161220c565b925050602061240085828601612221565b9150509250929050565b6000806040838503121561241d57600080fd5b600061242b8582860161220c565b925050602061243c8582860161228a565b9150509250929050565b60006020828403121561245857600080fd5b600061246684828501612236565b91505092915050565b60006020828403121561248157600080fd5b600061248f8482850161224b565b91505092915050565b6000602082840312156124aa57600080fd5b60006124b88482850161228a565b91505092915050565b6124ca816134e6565b82525050565b6124d9816134f8565b82525050565b60006124ea8261338e565b6124f481856133a4565b9350612504818560208601613569565b61250d81613704565b840191505092915050565b600061252382613399565b61252d81856133b5565b935061253d818560208601613569565b61254681613704565b840191505092915050565b600061255c82613399565b61256681856133c6565b9350612576818560208601613569565b80840191505092915050565b6000815461258f8161359c565b61259981866133c6565b945060018216600081146125b457600181146125c5576125f8565b60ff198316865281860193506125f8565b6125ce85613379565b60005b838110156125f0578154818901526001820191506020810190506125d1565b838801955050505b50505092915050565b600061260e6032836133b5565b91507f4552433732313a207472616e7366657220746f206e6f6e20455243373231526560008301527f63656976657220696d706c656d656e74657200000000000000000000000000006020830152604082019050919050565b6000612674601c836133b5565b91507f4552433732313a20746f6b656e20616c7265616479206d696e746564000000006000830152602082019050919050565b60006126b4600a836133c6565b91507f54484952445f574f5244000000000000000000000000000000000000000000006000830152600a82019050919050565b60006126f46024836133b5565b91507f4552433732313a207472616e7366657220746f20746865207a65726f2061646460008301527f72657373000000000000000000000000000000000000000000000000000000006020830152604082019050919050565b600061275a6019836133b5565b91507f4552433732313a20617070726f766520746f2063616c6c6572000000000000006000830152602082019050919050565b600061279a6063836133c6565b91507f222c20226465736372697074696f6e223a20224120686967686c79206163636c60008301527f61696d656420636f6c6c656374696f6e206f6620737175617265732e222c202260208301527f696d616765223a2022646174613a696d6167652f7376672b786d6c3b6261736560408301527f36342c00000000000000000000000000000000000000000000000000000000006060830152606382019050919050565b600061284c600b836133c6565b91507f5345434f4e445f574f52440000000000000000000000000000000000000000006000830152600b82019050919050565b600061288c602c836133b5565b91507f4552433732313a206f70657261746f7220717565727920666f72206e6f6e657860008301527f697374656e7420746f6b656e00000000000000000000000000000000000000006020830152604082019050919050565b60006128f2600d836133c6565b91507f3c2f746578743e3c2f7376673e000000000000000000000000000000000000006000830152600d82019050919050565b60006129326038836133b5565b91507f4552433732313a20617070726f76652063616c6c6572206973206e6f74206f7760008301527f6e6572206e6f7220617070726f76656420666f7220616c6c00000000000000006020830152604082019050919050565b6000612998602a836133b5565b91507f4552433732313a2062616c616e636520717565727920666f7220746865207a6560008301527f726f2061646472657373000000000000000000000000000000000000000000006020830152604082019050919050565b60006129fe6029836133b5565b91507f4552433732313a206f776e657220717565727920666f72206e6f6e657869737460008301527f656e7420746f6b656e00000000000000000000000000000000000000000000006020830152604082019050919050565b6000612a64602e836133b5565b91507f45524337323155524953746f726167653a2055524920736574206f66206e6f6e60008301527f6578697374656e7420746f6b656e0000000000000000000000000000000000006020830152604082019050919050565b6000612aca6002836133c6565b91507f227d0000000000000000000000000000000000000000000000000000000000006000830152600282019050919050565b6000612b0a6020836133b5565b91507f4552433732313a206d696e7420746f20746865207a65726f20616464726573736000830152602082019050919050565b6000612b4a6031836133b5565b91507f45524337323155524953746f726167653a2055524920717565727920666f722060008301527f6e6f6e6578697374656e7420746f6b656e0000000000000000000000000000006020830152604082019050919050565b6000612bb0602c836133b5565b91507f4552433732313a20617070726f76656420717565727920666f72206e6f6e657860008301527f697374656e7420746f6b656e00000000000000000000000000000000000000006020830152604082019050919050565b6000612c166029836133b5565b91507f4552433732313a207472616e73666572206f6620746f6b656e2074686174206960008301527f73206e6f74206f776e00000000000000000000000000000000000000000000006020830152604082019050919050565b6000612c7c602f836133b5565b91507f4552433732314d657461646174613a2055524920717565727920666f72206e6f60008301527f6e6578697374656e7420746f6b656e00000000000000000000000000000000006020830152604082019050919050565b6000612ce2600a836133c6565b91507f7b226e616d65223a2022000000000000000000000000000000000000000000006000830152600a82019050919050565b6000612d226021836133b5565b91507f4552433732313a20617070726f76616c20746f2063757272656e74206f776e6560008301527f72000000000000000000000000000000000000000000000000000000000000006020830152604082019050919050565b6000612d88600a836133c6565b91507f46495253545f574f5244000000000000000000000000000000000000000000006000830152600a82019050919050565b6000612dc8601d836133c6565b91507f646174613a6170706c69636174696f6e2f6a736f6e3b6261736536342c0000006000830152601d82019050919050565b6000612e086031836133b5565b91507f4552433732313a207472616e736665722063616c6c6572206973206e6f74206f60008301527f776e6572206e6f7220617070726f7665640000000000000000000000000000006020830152604082019050919050565b612e6a81613550565b82525050565b6000612e7c8284612551565b915081905092915050565b6000612e938285612551565b9150612e9f8284612551565b91508190509392505050565b6000612eb78286612551565b9150612ec38285612551565b9150612ecf8284612551565b9150819050949350505050565b6000612ee88287612582565b9150612ef48286612551565b9150612f008285612551565b9150612f0c8284612551565b9150612f17826128e5565b915081905095945050505050565b6000612f30826126a7565b9150612f3c8284612551565b915081905092915050565b6000612f528261283f565b9150612f5e8284612551565b915081905092915050565b6000612f7482612cd5565b9150612f808285612551565b9150612f8b8261278d565b9150612f978284612551565b9150612fa282612abd565b91508190509392505050565b6000612fb982612d7b565b9150612fc58284612551565b915081905092915050565b6000612fdb82612dbb565b9150612fe78284612551565b915081905092915050565b600060208201905061300760008301846124c1565b92915050565b600060808201905061302260008301876124c1565b61302f60208301866124c1565b61303c6040830185612e61565b818103606083015261304e81846124df565b905095945050505050565b600060408201905061306e60008301856124c1565b61307b6020830184612e61565b9392505050565b600060208201905061309760008301846124d0565b92915050565b600060208201905081810360008301526130b78184612518565b905092915050565b600060608201905081810360008301526130d98186612518565b90506130e86020830185612e61565b6130f560408301846124c1565b949350505050565b6000602082019050818103600083015261311681612601565b9050919050565b6000602082019050818103600083015261313681612667565b9050919050565b60006020820190508181036000830152613156816126e7565b9050919050565b600060208201905081810360008301526131768161274d565b9050919050565b600060208201905081810360008301526131968161287f565b9050919050565b600060208201905081810360008301526131b681612925565b9050919050565b600060208201905081810360008301526131d68161298b565b9050919050565b600060208201905081810360008301526131f6816129f1565b9050919050565b6000602082019050818103600083015261321681612a57565b9050919050565b6000602082019050818103600083015261323681612afd565b9050919050565b6000602082019050818103600083015261325681612b3d565b9050919050565b6000602082019050818103600083015261327681612ba3565b9050919050565b6000602082019050818103600083015261329681612c09565b9050919050565b600060208201905081810360008301526132b681612c6f565b9050919050565b600060208201905081810360008301526132d681612d15565b9050919050565b600060208201905081810360008301526132f681612dfb565b9050919050565b60006020820190506133126000830184612e61565b92915050565b6000604051905081810181811067ffffffffffffffff8211171561333f5761333e6136d5565b5b8060405250919050565b600067ffffffffffffffff821115613364576133636136d5565b5b601f19601f8301169050602081019050919050565b60008190508160005260206000209050919050565b600081519050919050565b600081519050919050565b600082825260208201905092915050565b600082825260208201905092915050565b600081905092915050565b60006133dc82613550565b91506133e783613550565b9250827fffffffffffffffffffffffffffffffffffffffffffffffffffffffffffffffff0382111561341c5761341b613648565b5b828201905092915050565b600061343282613550565b915061343d83613550565b92508261344d5761344c613677565b5b828204905092915050565b600061346382613550565b915061346e83613550565b9250817fffffffffffffffffffffffffffffffffffffffffffffffffffffffffffffffff04831182151516156134a7576134a6613648565b5b828202905092915050565b60006134bd82613550565b91506134c883613550565b9250828210156134db576134da613648565b5b828203905092915050565b60006134f182613530565b9050919050565b60008115159050919050565b60007fffffffff0000000000000000000000000000000000000000000000000000000082169050919050565b600073ffffffffffffffffffffffffffffffffffffffff82169050919050565b6000819050919050565b82818337600083830152505050565b60005b8381101561358757808201518184015260208101905061356c565b83811115613596576000848401525b50505050565b600060028204905060018216806135b457607f821691505b602082108114156135c8576135c76136a6565b5b50919050565b60006135d982613550565b91507fffffffffffffffffffffffffffffffffffffffffffffffffffffffffffffffff82141561360c5761360b613648565b5b600182019050919050565b600061362282613550565b915061362d83613550565b92508261363d5761363c613677565b5b828206905092915050565b7f4e487b7100000000000000000000000000000000000000000000000000000000600052601160045260246000fd5b7f4e487b7100000000000000000000000000000000000000000000000000000000600052601260045260246000fd5b7f4e487b7100000000000000000000000000000000000000000000000000000000600052602260045260246000fd5b7f4e487b7100000000000000000000000000000000000000000000000000000000600052604160045260246000fd5b6000601f19601f8301169050919050565b61371e816134e6565b811461372957600080fd5b50565b613735816134f8565b811461374057600080fd5b50565b61374c81613504565b811461375757600080fd5b50565b61376381613550565b811461376e57600080fd5b5056fe416e204e465420772f20494420257320686173206265656e206d696e74656420746f2025734142434445464748494a4b4c4d4e4f505152535455565758595a6162636465666768696a6b6c6d6e6f707172737475767778797a303132333435363738392b2fa26469706673582212203d409b6a33902a1f06162a582dde950355619c73d69b3da40a1b9688d2dcffd864736f6c634300080000333c73766720786d6c6e733d27687474703a2f2f7777772e77332e6f72672f323030302f73766727207072657365727665417370656374526174696f3d27784d696e594d696e206d656574272076696577426f783d273020302033353020333530273e3c7374796c653e2e62617365207b2066696c6c3a2077686974653b20666f6e742d66616d696c793a2073657269663b20666f6e742d73697a653a20323470783b207d3c2f7374796c653e3c726563742077696474683d273130302527206865696768743d2731303025272066696c6c3d27626c61636b27202f3e3c7465787420783d273530252720793d273530252720636c6173733d27626173652720646f6d696e616e742d626173656c696e653d276d6964646c652720746578742d616e63686f723d276d6964646c65273e",
  "linkReferences": {},
  "deployedLinkReferences": {}
}